:020000040800F2
:10000000A00500204501000891190008271A0008E2
:100010002B1A00082F1A0008331A000800000000ED
:10002000000000000000000000000000371A000877
:10003000391A0008000000003B1A00083D1A0008A9
:100040005F0100085F0100085F0100085F640008AD
:100050005F0100085F010008A33700087B37000834
:100060005F01000811380008293800085F01000806
:100070005F0100085F0100085F0100085F010008E0
:100080005F0100085F0100085F0100085F010008D0
:100090005F0100085F0100085F0100085F010008C0
:1000A0005F0100085F0100085F0100085F010008B0
:1000B0005F0100085F0100085F0100085F010008A0
:1000C0005F0100085F0100085F0100085F01000890
:1000D0005F0100085F0100085F0100089319000834
:1000E000413800085F0100085F0100085F01000857
:1000F0005F0100085F0100085F0100085F01000860
:100100005F0100085F0100085F0100085F0100084F
:100110005F0100085F0100085F0100085F0100083F
:100120005F0100085F0100085F0100085F0100082F
:10013000DFF80CD006F00AFE004800472D19000831
:10014000A00500200648804706480047FEE7FEE776
:10015000FEE7FEE7FEE7FEE7FEE7FEE7FEE7FEE777
:1001600047020008310100080CB500200190009002
:100170006C48006840F480306A49086000BF6948F4
:10018000006800F4003000900198401C0190009835
:1001900018B90198B0F5A06FF1D16248006800F479
:1001A000003010B10120009001E000200090009884
:1001B000012843D15C48006840F010005A490860AB
:1001C0000846006820F0030008600846006840F018
:1001D0000200086053484068524948600846406839
:1001E00048600846406840F48060486008464068BF
:1001F00020F47C1048600846406840F4E8104860ED
:100200000846006840F08070086000BF45480068FC
:1002100000F000700028F9D04248406820F0030048
:10022000404948600846406840F00200486000BF0E
:100230003C48406800F00C000828F9D10CBD10B50E
:10024000FFF792FF10BD10B53648006840F001007E
:1002500034490860084640683449084031494860DC
:1002600008460068324908402E4908600846006880
:1002700020F4802008600846406820F4FE004860B2
:100280004FF41F008860FFF7DAFF4FF00060294944
:10029000086010BD10B5002100200022214B5B68D2
:1002A00003F00C0121B1042906D0082928D107E068
:1002B000214B224C236027E01F4B204C236023E07E
:1002C000184B5B6803F47010164B5B6803F48032C4
:1002D000022303EB904022B9194B4343174C236090
:1002E0000DE0104B5B6803F4003323B1144B434320
:1002F000124C236003E0104B4343104C236003E097
:100300000D4B0E4C236000BF00BF064B5B68C3F370
:1003100003130C4CE15C094B1B68CB40074C23607A
:1003200010BD000000100240002002400000FFF855
:10033000FFFFF6FE08ED00E000127A00000000204A
:1003400000093D000400002031490143314A116099
:10035000704770B5002100230F22C47804B32D4CE0
:10036000246804F4E064C4F5E064210AC1F10403E4
:10037000CA40447804FA03F1847814402143090107
:10038000254C0678A155047804F01F050124AC40E3
:1003900005786D11AD0005F1E025C5F8004109E0D3
:1003A000047804F01F050124AC401C4D067876113A
:1003B00045F8264070BD1A4A0A400243154B1B1FE0
:1003C0001A60704739B1134A121D12680243114B6B
:1003D0001B1D1A6006E00F4A121D126882430D4B66
:1003E0001B1D1A607047042808D14FF0E0210969ED
:1003F00041F004014FF0E022116107E04FF0E021ED
:10040000096921F004014FF0E022116170470000FA
:100410000000FA050CED00E000E400E080E100E0FF
:1004200080FFFF1F10B5012000F0A8FF002000F0A2
:10043000A5FF10BD2A49086070472949091F0860B7
:100440007047274984310860704701460020254ADB
:1004500010884FF67F4210400843224A10807047B0
:10046000014600201F4A10884FF680721040084352
:100470001C4A1080704708B500220092194A2C3A95
:100480000092009A02440092009A116008BD08B5DB
:1004900001460020009013482C3800900098084432
:1004A00000900098008808BD0D489C300068C0B2DC
:1004B00070470C480830008840F0010009490831B5
:1004C000088070470648A0300068C0B270470548F1
:1004D0000830008840F00200024908310880704767
:1004E00004860D422C6C0040002044490860091D20
:1004F0000860091D0860091D086041483F49143122
:100500000860704700213D498279002A3AD00A46A6
:10051000126803689A430B461A600A1D1268036842
:100520009A430B1D1A60027911440A6803681A4342
:100530000A60324A0832126803689A432F4B083324
:100540001A601A1D126803689A432C4B0C331A6008
:100550004279102A0ED11A1F126803681A43274BDA
:1005600008331A601A1D126803681A43234B0C33B0
:100570001A600DE02149427911440A6803681A4360
:100580000A6005E0027911440A6803689A430A6028
:1005900070470021016001710C21417100218171BE
:1005A00070471649103109680143144A103211602E
:1005B000704701460020114A143212680A400AB1FD
:1005C000012000E0002070470C491431086070479A
:1005D000014600200022094B1B6803EA0102074B79
:1005E00014331B680B4013B10AB1012000E0002056
:1005F0007047024914310860704700000004014050
:10060000FFFF0F0030B943F2DB028100A1F1C041CE
:100610000A6005E043F2D2028100A1F1C0410A6004
:100620006FF07042411C8900A1F1C0410A60810055
:10063000A1F1C041C1F80421704710280AD1182146
:100640004FF020421166402151664FF0FC31916617
:10065000D16610E01821F74A116040214FF0204286
:10066000C2F884104FF0FC31F24A083211604FF0AA
:100670002042C2F88C1070471820EE4920310860E3
:1006800000200906C1F8A4004FF0FC30E9492831E8
:100690000860091D0860091D08607047D0E9011253
:1006A0001143C268114302691143426911438269CF
:1006B0001143C2691143026A1143426A1143826ABB
:1006C0001143C26A1143026B114302689200A2F106
:1006D000C0421160816808290BD101688900A1F12D
:1006E000C041096841F0400201688900A1F1C041A0
:1006F0000A60416B0968426B526841EA0211426B21
:10070000926841EA0221426B928941EA0241426BBE
:10071000128A41EA0251426B127D41EA0261426B48
:10072000926911430268521C9200A2F1C04211600A
:10073000C16AB1F5804F1BD1816B0968826B526829
:1007400041EA0211826B926841EA0221826B128AAD
:1007500041EA0251826B127D41EA0261826B926929
:10076000114302689200A2F1C042C2F8041107E0EE
:100770006FF0704201688900A1F1C041C1F8042105
:10078000704730B5002100220023446844F008047B
:1007900085682C43C5682C4305692C43456944EAA8
:1007A0004524856944EA4531C4692468C5696D6892
:1007B00044EA0524C5692D8944EA0544C5692D7BB1
:1007C00044EA0562046A2468056A6D6844EA0524FF
:1007D000056A2D8944EA0544056A2D7B44EA0563D0
:1007E0000468102C05D14FF020442166A266E36610
:1007F00008E0904C21604FF02044C4F888208D4CD4
:100800000C34236030BD016841F01001426841EAB8
:100810004221826841EA4231864A20321160C16831
:100820000968C268526841EA0221C268128941EA35
:100830000241C268127B41EA02617E4A283211609D
:10084000016909680269526841EA02210269128954
:1008500041EA02410269127B41EA0261754A2C3287
:100860001160416909684269526841EA022142699E
:10087000128941EA02414269127B41EA02614FF06A
:100880002042C2F8B010704700210160022141608F
:1008900000218160C160016141618161C1610162CA
:1008A0004FF480514162490081620021C1620163BD
:1008B0000F21426B1160426B5160FF21426B9160CE
:1008C0000F21426BD160426B1161426B516100217B
:1008D000426B91610F21826B1160826B5160FF212D
:1008E000826B91600F21826BD160826B1161826B90
:1008F00051610021826B91617047102101600021DC
:1009000041608160C160016141618161FC21C26916
:100910001160C2695160C2699160C269D160026AA6
:100920001160026A5160026A9160026AD160704788
:100930000021016041608160FC21C2681160C268D1
:100940005160C2689160C268D16002691160026939
:100950005160026991600269D16042691160426927
:100960005160426991604269D160704751B1820023
:10097000A2F1C042126842F001038200A2F1C0421B
:10098000136009E08200A2F1C04212682A4B1A40AB
:100990008300A3F1C0431A60704799B1102808D1B1
:1009A0004FF02042126E42F004024FF020431A66CC
:1009B0001DE0204A126842F004024FF02043C3F8C1
:1009C000802014E0102809D14FF02042126E1A4BFB
:1009D000DB1E1A404FF020431A6608E0154A1268E1
:1009E000154BDB1E1A404FF02043C3F880207047A0
:1009F00048B110492031096841F004014FF020420C
:100A0000C2F8A01009E00B49203109680A4AD21E39
:100A100011404FF02042C2F8A0107047B9B1102821
:100A20000CD14FF02042126E42F040024FF02043B2
:100A30001A661FE0800000A0FEFF0F00724A1268D5
:100A400042F040024FF02043C3F8802012E010280B
:100A500008D14FF02042126E6C4B1A404FF02043E9
:100A60001A6607E0684A1268684B1A404FF0204344
:100A7000C3F88020704701460020102903D14FF0B1
:100A80002042506F02E0604A14321068704710B57F
:100A9000F2B1102807D14FF020435B6E0B434FF0AB
:100AA0002044636632E0B0F5807F08D1564B1B1DB1
:100AB0001B680B434FF02044C4F8843026E0524BAF
:100AC00024331B680B434FF02044C4F8A4301DE0CE
:100AD000102807D14FF020435B6E8B434FF020442A
:100AE000636613E0B0F5807F08D1474B1B1D1B6880
:100AF0008B434FF02044C4F8843007E0424B24334A
:100B00001B688B434FF02044C4F8A43010BD10B5CF
:100B1000024600200023102A03D14FF02044636EC8
:100B200009E0B2F5807F03D1374C241D236802E031
:100B3000354C2434236803EA01040CB1012000E0A1
:100B4000002010BD102807D14FF02042526E8A437A
:100B50004FF020435A6613E0B0F5807F08D12A4A4F
:100B6000121D12688A434FF02043C3F8842007E027
:100B7000254A243212688A434FF02043C3F8A42048
:100B8000704770B502460020002300240025102A7B
:100B900003D14FF02046736E09E0B2F5807F03D198
:100BA000194E361D336802E0174E2436336803EAC7
:100BB000010403EAD10514B10DB1012000E00020C9
:100BC00070BD102808D14FF02042526E22EAD102A7
:100BD0004FF020435A6615E0B0F5807F09D10A4AEC
:100BE000121D126822EAD1024FF02043C3F884207C
:100BF00008E0054A2432126822EAD1024FF020436D
:100C0000C3F8A42070470000800000A0BFFF0F00C1
:100C100010B50446CC48844208D10121042000F0DC
:100C200093FB0021042000F08FFB46E0C74884427C
:100C300008D10121082000F087FB0021082000F0E6
:100C400083FB3AE0C248844208D10121102000F021
:100C50007BFB0021102000F077FB2EE0BD48844292
:100C600008D10121202000F06FFB0021202000F09E
:100C70006BFB22E0B848844208D10121402000F0FB
:100C800063FB0021402000F05FFB16E0B348844284
:100C900008D10121802000F057FB0021802000F0C6
:100CA00053FB0AE0AE48844207D10121801500F0D1
:100CB0004BFB0021A01500F047FB10BD10B5012132
:100CC000084600F041FB0021012000F03DFB10BD73
:100CD0002DE9F041024600250026002000230024D3
:100CE000002791F803C00CF00F0591F803C00CF039
:100CF000100CBCF1000F03D091F802C04CEA0505BE
:100D000091F800C0BCF1000F31D0146800202BE036
:100D10004FF0010C0CFA00F3B1F800C00CEA030626
:100D20009E4220D183004FF00F0C0CFA03F7BC4316
:100D300005FA03FC4CEA040491F803C0BCF1280F47
:100D400006D14FF0010C0CFA00FCC2F814C00AE006
:100D500091F803C0BCF1480F05D14FF0010C0CFA1B
:100D600000FCC2F810C0401C0828D1D31460B1F8B0
:100D700000C0BCF1FF0F34DD546800202EE000F10C
:100D8000080C4FF0010808FA0CF3B1F800C00CEAA7
:100D900003069E4221D183004FF00F0C0CFA03F79B
:100DA000BC4305FA03FC4CEA040491F803C0BCF10F
:100DB000280F05D100F1080C08FA0CF8C2F81480CD
:100DC00091F803C0BCF1480F07D100F1080C4FF0B7
:100DD000010808FA0CF8C2F81080401C0828CED38D
:100DE0005460BDE8F0814FF6FF71018002218170EF
:100DF0000421C17070470246002093680B400BB17C
:100E0000012000E0002070470146886880B27047EA
:100E100002460020D3680B400BB1012000E0002007
:100E200070470146C86880B27047016170474161F0
:100E300070470AB1016100E041617047C1607047CD
:100E40004FF480320A4382618161826182698269E2
:100E5000704702460020434B18684FF680731840D5
:100E600040EA021008433F4B186070473E49C86192
:100E70007047F0B50A46002300240021002500F049
:100E80000046B6F1004F02D1364EF16901E0354E11
:100E90007168C0F3034583B200F44016B6F5401FF5
:100EA00008D121F070612F4E766826F070662D4FC4
:100EB0007E6012E000F48016B6F5801F06D103268E
:100EC00006FA05F4A14341F0706106E0460D3601D3
:100ED00003FA06F6B14341F0706122B1460D3601C6
:100EE00003FA06F6314300F00046B6F1004F02D196
:100EF0001C4EF16101E01B4E7160F0BD30B5002267
:100F00008B071C0F0F2303FA04F2164B08338C10C7
:100F100053F824309343134C08348D1044F8253093
:100F200023468C1053F824308C07240F00FA04F465
:100F300023430C4C08348D1044F8253030BD0A4949
:100F4000DC3108607047000000080140000C0140DF
:100F5000001001400014014000180140001C014035
:100F600000200140000001400000204210B5012196
:100F7000080700F0F6F900214FF0805000F0F1F979
:100F800010BD2A4908627047284908617047014628
:100F90000020274A106820F0E000084310607047E6
:100FA0002249A0310860704710B502460020204B4E
:100FB000186820F00300104318601E4B1B6843F0B4
:100FC00004031C4C2360012901D130BF00E020BF85
:100FD000184B1B6823F00403164C236010BD144803
:100FE000006840F00400124908600846006840F0BC
:100FF000020008600F48006840F004000D490860D6
:1010000000BF00BF30BF704701460020084A526849
:101010000A400AB1012000E0002070470449096835
:1010200041EA8001024A11607047000000000E4250
:101030000070004010ED00E0DF48006840F0010063
:10104000DD49086008464068DC490840DA494860E4
:1010500008460068DA490840D74908600846006831
:1010600020F4802008600846406820F4FE004860B4
:101070004FF41F0088607047CF49096821F4803120
:10108000CD4A11601146096821F480211160B0F544
:10109000803F03D0B0F5802F0ED106E0C649096825
:1010A00041F48031C44A116007E0C349096841F442
:1010B000A021C14A116000E000BF00BF704710B519
:1010C00001460022002300204A11012A02D1BA4C15
:1010D000236806E0022A02D1B74C236A01E0B64C2D
:1010E000636A01F01F02012494401C400CB10120EE
:1010F00000E0002010BD38B500200090002400253D
:1011000000BF3120FFF7DBFF05460098401C009030
:101110000098B0F5A06F01D0002DF2D03120FFF77C
:10112000CEFF08B1012400E00024204638BD01466E
:101130000020A14A106820F0F80040EAC1001060C9
:101140007047A04908607047024600209A4B5868D3
:1011500020F47C1042EA01031843974B5860704713
:1011600098490866704701460020934A506820F06D
:1011700003000843506070478F48406800F00C003F
:101180007047014600208C4A506820F0F000084368
:101190005060704701460020874A506820F4E060A4
:1011A00008435060704701460020834A506820F48D
:1011B000605040EAC1005060704729B17E4A527ABF
:1011C00002437D4B5A7204E07B4A527A82437A4B47
:1011D0005A7270477B49D831086070470146002039
:1011E000754A506820F44040084350607047002121
:1011F000714A20321170704A82F82010012802D002
:1012000004280AD104E001216B4A2032117005E064
:101210000521694A2032117000E000BF00BF70470D
:101220006949086070476449096A0143624A11626A
:101230007047654944390860704730B50021002285
:10124000002400235C4D6D6805F00C0121B10429D8
:1012500005D0082923D105E05C4D056022E05B4DF7
:1012600005601FE0544D6D6805F47012524D6D68B5
:1012700005F48034022505EB92421CB9544D5543C8
:1012800005600BE04C4D6D6805F400351DB1504D07
:101290005543056002E04D4D5543056002E04B4D5E
:1012A000056000BF00BF444D6D6805F0F0010909FD
:1012B000484D6B5C0568DD4045603F4D6D6805F449
:1012C000E061090A434D6B5C4568DD4085603A4D3D
:1012D0006D6805F46051C90A3E4D6B5C4568DD40A0
:1012E000C560354D6D6805F44041890B3A4D6B5C26
:1012F000C568B5FBF3F5056130BD29B12E4A5269C9
:1013000002432D4B5A6104E02B4A526982432A4B17
:101310005A61704729B1284A92690243264B9A6163
:1013200004E0254A92698243234B9A61704729B1B0
:10133000214AD2690243204BDA6104E01E4AD26995
:1013400082431D4BDA61704729B11B4AD2680243C0
:10135000194BDA6004E0184AD2688243164BDA600F
:10136000704729B1144A12690243134B1A6104E011
:10137000114A12698243104B1A6170471249403971
:10138000086070470F49C86470470B49C8717047BF
:101390000948406A40F0807007494862704701463A
:1013A0000020054A92680A400AB1012000E00020AE
:1013B0007047014988727047001002400000FFF832
:1013C000FFFFF6FE000042428004424200127A0013
:1013D00000093D00140000202400002029B1504ADB
:1013E000128802434E4B1A8004E04D4A1288824311
:1013F0004B4B1A8070474A48001D008840F010008F
:101400004749091D088070474548001D00884FF670
:10141000EF7108404249091D08807047002140488B
:101420001C300188001F008841EA0040704700B569
:101430000246FFF7E0FF100C394918310880091DFA
:101440000A80FFF7E1FF00BD00B50246FFF7D3FFBA
:10145000C2F30340324908310880091D0A80FFF7B2
:10146000D3FF00BD00B50246FFF7C5FF100C2C49A5
:1014700020310880091D0A80FFF7C6FF00BD00204B
:101480002749103109880907080B254914310988B3
:101490000843704700BF2248001D008800F020006C
:1014A0000028F8D070471E48001D00884FF6F771DD
:1014B00008401B49091D088000BF1948001D00880D
:1014C00000F008000028F8D0704701460020144AB8
:1014D000121D12880A400AB1012000E00020704766
:1014E0000F49091D098881430D4A121D118070475B
:1014F000014600200A4A121D12880A40D0B2084A4A
:1015000012880A4012B108B1012000E000207047A3
:101510000349091D09888143014A121D1180704742
:101520000028004010B50446FB48844209D101213F
:101530008803FFF709FF00214FF48040FFF704FF05
:1015400032E0F648844209D101214804FFF709FF3F
:1015500000214FF40030FFF704FF25E0F0488442FB
:1015600009D101218804FFF7FCFE00214FF48020FF
:10157000FFF7F7FE18E0EB48844209D10121C804C7
:10158000FFF7EFFE00214FF40020FFF7EAFE0BE02B
:10159000E548844208D101210805FFF7E2FE002159
:1015A0004FF48010FFF7DDFE10BD2DE9F04786B047
:1015B00005460E460024A24600BFA1460027B0897A
:1015C00000B100BF2F462C8A4CF6FF700440F08813
:1015D00004432C82AC894EF6F3100440B088318964
:1015E0000843718908430443AC81AC8A4FF6FF403D
:1015F0000440B0890443AC8201A8FFF71EFEC64830
:10160000874202D1DDF810A001E0DDF80CA0A88926
:1016100000F4004040B10AEBCA0000EB0A10316848
:101620004900B0FBF1F807E00AEBCA0000EB0A1032
:1016300031688900B0FBF1F86420B8FBF0F00401D8
:101640002009642101FB1089A88900F4004040B101
:10165000322000EBC900B0FBF1F000F007000443BA
:1016600008E0322000EB09106421B0FBF1F000F03B
:101670000F0004432C8106B0BDE8F0874FF41651EB
:10168000016000218180C18001810C214181002104
:101690008181704710B502460020108A4FF2FF0387
:1016A00018400B884C8823438C882343CC882343E1
:1016B0001843108210BD0021018041808180C180CB
:1016C000704721B1828942F40052828104E082890C
:1016D0004DF6FF731A4082817047F0B5034600242F
:1016E00000260025002040F66A17B94200D100BF4D
:1016F0001846C1F3421401F01F06012707FA06F548
:10170000012C01D10C3004E0022C01D1103000E09A
:1017100014301AB107682F43076002E00768AF432F
:101720000760F0BD1AB1838A0B43838202E0838A8B
:101730008B4383827047028A4FF6F0731A4002820D
:10174000028A0A430282704782894FF2FF731A406D
:10175000828182890A438281704721B1828942F065
:101760000202828104E082894FF6FD731A40828171
:101770007047028A4FF6DF731A400282028A0A43D8
:101780000282704721B1028A42F48042028204E060
:10179000028A4BF6FF731A4002827047C1F30802B7
:1017A0008280704701468888C0F3080070478189AD
:1017B00041F0010181817047028BD2B20283028B1A
:1017C00042EA012202837047028B02F47F420283C5
:1017D000028B0A430283704721B1828A42F02002C1
:1017E000828204E0828A4FF6DF731A408282704759
:1017F00021B1828A42F01002828204E0828A4FF68E
:10180000EF731A408282704721B1828A42F0080247
:10181000828204E0828A4FF6F7731A408282704710
:1018200021B1828942F40042828103E08289C2F3BD
:101830000E028281704721B1828A42F40062828264
:1018400004E0828A4FF2FF731A4082827047828AD4
:101850004FF6FB731A408282828A0A438282704763
:1018600021B1828A42F00202828204E0828A4FF62B
:10187000FD731A408282704702460020B1F5007F56
:1018800000D100BF13880B400BB1012000E0002005
:10189000704701F40072B2F5007F00D100BFCA4367
:1018A0000280704770B50246002400230025002006
:1018B00040F66A16B14200D100BFC1F3421501F0F3
:1018C0001F03012606FA03F3012D02D19689334046
:1018D00006E0022D02D1168A334001E0968A334099
:1018E0000C12012606FA04F41688344013B10CB128
:1018F000012000E0002070BD10B50022002340F65A
:101900006A14A14200D100BF0A1201249440A3B27C
:10191000DC43048010BD000000380140004400405A
:1019200000480040004C00400050004000F0FCF82F
:1019300000F039F904F014FB04F067FB04F071FACD
:1019400004F094FB00F086F800F064F904F0BDFBAD
:1019500000F074F904F051FD04F0BEFD00F0BCFF8E
:10196000FF2004F0A1FD08A004F0C1FDFF2004F059
:101970009BFD4FF47A7000F0AAF803E000F0C2FF7C
:1019800001F030F8FAE7000070616765203100006F
:10199000704710B5002440F225512948FFF76CFF2D
:1019A000012834D12648FFF7FDFE0A280FD1002078
:1019B0002449087001202449087000BF04E0002079
:1019C00022490855601CC4B2142CF8DB1FE01D48E6
:1019D000007840B9002404E000201D490855601C2F
:1019E000C4B2142CF8DB1648FFF7DCFE1749154A81
:1019F00012788854084613490978405C1449114A02
:101A0000127888540F480078401C0E49087040F244
:101A100025510B48FFF746FF20B140F225510848F9
:101A2000FFF76AFF10BD00BFFEE700BFFEE700BF83
:101A3000FEE700BFFEE77047704770477047000041
:101A40000048004028000020290000207C000020E1
:101A50009000002010B56FF00400FEF7C4FC2E4883
:101A600000682E49B0FBF1F02D4908700846007857
:101A700000EB4001C1EBC0104FF6FF7101EAC0005E
:101A80002849088010BD0146254A12784A434FF084
:101A9000E0235A6100229A611A46126942F001025B
:101AA0001A6100BF4FF0E022106900F001021AB184
:101AB00000F48032002AF5D04FF0E022126922F0C3
:101AC00001024FF0E0231A6100229A61704701463B
:101AD000144A12884A434FF0E0235A6100229A6167
:101AE0001A46126942F001021A6100BF4FF0E0226B
:101AF000106900F001021AB100F48032002AF5D01A
:101B00004FF0E022126922F001024FF0E0231A6147
:101B100000229A61704700000000002000127A0045
:101B20002A0000202C00002000B585B0012144F2DD
:101B30000400FFF7EFFB4FF40070ADF81000182021
:101B40008DF8130003208DF8120004A92F48FFF729
:101B5000BFF84FF48060ADF8100004208DF813003A
:101B600004A92A48FFF7B4F84FF41650009000205B
:101B7000ADF80400ADF80600ADF80800ADF80C00B3
:101B80000C20ADF80A0069462148FFF70EFD01223E
:101B900040F225511E48FFF7A0FD01211C48FFF728
:101BA00090FD05B000BD08B54FF4E060FEF7CCFB3A
:101BB00025208DF8000000208DF8010001208DF80F
:101BC00002008DF803006846FEF7C3FB08BD2DE94F
:101BD000F04105460C46260AE7B231462846FFF793
:101BE000DDFD00BF80212846FFF746FE0028F9D022
:101BF00039462846FFF7D2FD00BF80212846FFF76F
:101C00003BFE0028F9D0BDE8F0810000000801404B
:101C1000003801400020F649C8600861C862F549F3
:101C20000860F548C860F5480861F548486100203B
:101C3000F449087048708870C870704708B5012171
:101C40001020FFF767FB4FF44070ADF80000042050
:101C50008DF8030003208DF802006946EA48FFF77B
:101C600037F808BD2DE9F04F8DB000200C9040F6FC
:101C70009800FFF72CFFE548006830B34FF48071FF
:101C8000E148FFF7B8F800BB4FF40071DE48FFF7FA
:101C9000B2F8D0B14FF40071DB48FFF7C8F8C820A4
:101CA000FFF715FF2421DA48FFF778FDD9A1D848BE
:101CB00004F05EFA4FF40071D348FFF7B6F8052040
:101CC000FFF705FF0020D1490860D54881780C98BE
:101CD000814232D0D24880780C90C649086804F01E
:101CE0004FFE04460D46C249C86A04F049FE064646
:101CF0000F46BF49086904F043FE80468946BC4947
:101D0000C86804F03DFE04AAA2E80303CDE9086711
:101D1000CDE90A45C2488078C1494978C04A12785D
:101D2000BF4BDB79CDE90032CDE90210BC488379A5
:101D30008288BC49BC4805F08DF8B448006878B981
:101D40004FF48071B048FFF756F848B94FF400716E
:101D5000AD48FFF750F818B1B349AD4804F008FAA0
:101D60000DB0BDE8F08F10B5002405E0AF48015D6F
:101D7000AFA005F05FF8641C062CF7D310BD10B5BA
:101D800088B00146AA2902D10022AA4B1A80A94A8A
:101D900013881288521CA74C22800DF8031022468B
:101DA00012881E2A1CD19DF80020AA2A18D19DF85D
:101DB0000120552A14D100BF00200FE0421D1DF85C
:101DC00002208B4B23F8102000F111021DF8023085
:101DD000874A921D22F81030421C90B20328EDDB96
:101DE00008B010BD2DE9F0478149097849064A0A33
:101DF0007F49498802EB01217D4A9288881804F0C6
:101E00008CFD04468C4904F031FC8C49086078490B
:101E1000897949064A0A7649098902EB01227449FF
:101E20004989501804F079FD0446834904F01EFCEA
:101E3000834908606E480088802805DB7F48016878
:101E4000804804F0E1FB01E07C4800687B490860C1
:101E50006748C088802805DB79480168794804F024
:101E6000D3FB01E0764800687549086076497348FD
:101E7000006804F0FBFB824604F082FD8046424687
:101E80000B460020714905F0CFFC06460022704B3E
:101E900004F0D1FC044604F09BFD5549C8606A4932
:101EA0006748006804F0E2FB824604F069FD0646DC
:101EB00032460B460020654905F0B6FC0446002278
:101EC000634B04F0B8FC804604F082FD4849086189
:101ED0000A461169D06804F0C9FB4549C862BDE8EB
:101EE000F08700B58BB04248C16A5A480268006862
:101EF000401C584B1860584840F82210184600689B
:101F0000032872DD5548007838B3534840680A907A
:101F10005148006809900A9904F076FD1DD24E4898
:101F200080680A904C48406809900A9904F06CFD5A
:101F300013D24948C0680A904748806809900A99B6
:101F400004F062FD09D22A48C06A454908600020B1
:101F5000424908700120434908704248007800282F
:101F600044D02348C06A014607903D48006804F009
:101F70004BFD17D81E48C06A0146029038480068D9
:101F800004F03CFB039004F0FBFC0022364BCDE94F
:101F9000040104F050FC0022344BCDE9060104F0AA
:101FA000A3FB01E000203149CDE9080104F010FD58
:101FB000104908600E48C06A0690294801680698D2
:101FC00004F01CFB079004F0DBFC294A294BCDE907
:101FD000080104F0E9FC77D20120204908700020B4
:101FE000204908701E4908606EE082E044E000006D
:101FF000A4000020E00000203923104141C00F411F
:10200000CCE414C330000020001001403800002050
:10201000004C0040323031393031303100000000A6
:102020009601002098C500081801002043000020F8
:10203000256300006200002000007A444C0000206C
:1020400050000020000080BF00002041000024401C
:1020500000408F40640000207C01002061000020CF
:1020600068000020600000204048C3400000E03FBE
:102070002D431CEBE2363A3FFB4880680290FA4859
:10208000C0680190029904F0B9FA039004F05FFC73
:102090000A90002801DB0A9801E00A984042039068
:1020A00004F044FC0022F14BCDE9040104F0C3FB31
:1020B0000022EF4BCDE9060104F016FBCDE9080143
:1020C00004F086FCEB490860EA480068EA490A9097
:1020D00004F09AFC05D84FF40061E848FEF7A7FE2B
:1020E00004E04FF40061E548FEF79FFE0020E4495C
:1020F0000860E448006804F043FC02460B46CDE962
:102100000801E1A1E24804F0A5FEE248007820B110
:10211000012873D0022872D165E2DE484078062893
:1021200023D2DFE800F003235385B5E5D948808842
:1021300060B1D048C0684FF07E510A9004F00CFAAC
:10214000CC49C8600020D34988800EE0D148C088BF
:1021500058B1C848C0684FF07E510A9004F04EFA5A
:10216000C449C8600020CB49C880F1E0C9488088D4
:10217000A0B1C048C068059004F002FCC64AC74B35
:10218000CDE9060104F0B0FACDE9080104F020FC25
:10219000B849C8600020BF49888016E0BD48C088A3
:1021A00098B1B448C068059004F0EAFBBA4ABB4B4A
:1021B000CDE9060104F039FBCDE9080104F008FC83
:1021C000AC49C8600020B349C880C1E0B1488088EC
:1021D000B0B1A848C068059004F0D2FBB04AB14B3A
:1021E000CDE9060104F080FACDE9080104F0F0FB26
:1021F000A049C8600020A749888018E0AAE04CE305
:10220000A448C08898B19B48C068059004F0B8FB0A
:10221000A34AA44BCDE9060104F007FBCDE9080170
:1022200004F0D6FB9349C86000209A49C8808FE02B
:1022300098488088A0B18F48C068059004F0A0FB42
:10224000994A9A4BCDE9060104F04EFACDE908010E
:1022500004F0BEFB8749C86000208E49888016E0E4
:102260008C48C08898B18348C068059004F088FB0A
:102270008D4A8E4BCDE9060104F0D7FACDE908016D
:1022800004F0A6FB7B49C86000208249C8805FE05B
:1022900080488088A0B17748C068059004F070FB42
:1022A000834A844BCDE9060104F01EFACDE908010A
:1022B00004F08EFB6F49C86000207649888016E0E4
:1022C0007448C08898B16B48C068059004F058FB0A
:1022D000774A784BCDE9060104F0A7FACDE9080169
:1022E00004F076FB6349C86000206A49C8802FE08B
:1022F00068488088A0B15F48C068059004F040FB42
:102300006D4A6E4BCDE9060104F0EEF9CDE9080106
:1023100004F05EFB5749C86000205E49888016E0E3
:102320005C48C08898B15348C068059004F028FB09
:10233000614A624BCDE9060104F077FACDE9080164
:1023400004F046FB4B49C86000205249C88000BFDA
:1023500000BFA2E24F488078062823D2DFE800F0D1
:10236000032353B0E0F84B48808860B141480069CE
:102370004FF07E510A9004F0EFF83E4908610020CA
:10238000444988800EE04348C08858B13948006904
:102390004FF07E510A9004F031F93649086100206F
:1023A0003C49C8801DE13B488088A0B131480069A4
:1023B000059004F0E5FA384A384BCDE9060104F0FF
:1023C00093F9CDE9080104F003FB2A4908610020D4
:1023D0003049888016E02F48C08898B125480069A8
:1023E000059004F0CDFA2C4A2C4BCDE9060104F0FF
:1023F0001CFACDE9080104F0EBFA1E49086100203F
:102400002449C880EDE023488088A0B119480069BC
:10241000059004F0B5FA224A224BCDE9060104F0FA
:1024200063F9CDE9080104F0D3FA124908610020EC
:102430001849888016E01748C08898B10D4800698F
:10244000059004F09DFA164A164BCDE9060104F0FA
:10245000ECF9CDE9080104F0BBFA06490861002057
:102460000C49C880BDE000007C0100204048C3400A
:102470000000E03FE0000020000016440020014082
:10248000640000206800002025352E326600000020
:1024900058000020300000209A9999999999B93FE5
:1024A0007B14AE47E17A843FFCA9F1D24D62503FE4
:1024B0002D431CEBE2361A3FF168E388B5F8E43EA1
:1024C000F7488088A0B1F7480069059004F058FAF1
:1024D000F54AF64BCDE9060104F006F9CDE908010D
:1024E00004F076FAEF4908610020ED49888016E093
:1024F000EB48C08898B1EB480069059004F040FAB9
:10250000E94AEA4BCDE9060104F08FF9CDE908016B
:1025100004F05EFAE34908610020E149C88060E008
:10252000DF488088A8B1DF480069059004F028FAE8
:10253000DF4AE04BCDE9060104F0D6F8CDE9080109
:1025400004F046FAD74908610020D549888017E091
:1025500017E0D348C08898B1D2480069059004F0CC
:102560000FFAD34AD34BCDE9060104F05EF9CDE969
:10257000080104F02DFACB4908610020C849C88041
:102580002FE0C7488088A0B1C6480069059004F0D4
:10259000F7F9C94AC94BCDE9060104F0A5F8CDE920
:1025A000080104F015FABF4908610020BC49888081
:1025B00016E0BB48C08898B1BA480069059004F09D
:1025C000DFF9BD4ABD4BCDE9060104F02EF9CDE996
:1025D000080104F0FDF9B34908610020B049C88042
:1025E00000BF00BF59E1AE48C078082822D2DFE81A
:1025F00000F00422406090C0F2F0A948808858B1F1
:10260000A8484069AE490A9003F0A6FFA549486171
:102610000020A34988800DE0A148C08850B1A1489E
:102620004069A7490A9003F0E9FF9E4948610020EC
:102630009B49C8802FE19A48808858B199484069E1
:10264000A0490A9003F088FF964948610020944908
:1026500088800DE09248C08850B1924840699949FD
:102660000A9003F0CBFF8F49486100208C49C88055
:1026700011E18B48808860B18A4840694FF07E51F3
:102680000A9003F069FF87494861002084498880E7
:102690000EE08348C08858B1824840694FF07E51AF
:1026A0000A9003F0ABFF7F49486100207C49C88055
:1026B000F1E07B488088A0B17A484069059004F039
:1026C0005FF9814A814BCDE9060104F00DF8CDE9AF
:1026D000080104F07DF97349486100207049888041
:1026E00016E06F48C08898B16E484069059004F0C4
:1026F00047F9754A754BCDE9060104F096F8CDE926
:10270000080104F065F96749486100206449C88000
:10271000C1E063488088A0B162484069059004F038
:102720002FF96B4A6B4BCDE9060103F0DDFFCDE9D4
:10273000080104F04DF95B49486100205849888040
:1027400016E05748C08898B156484069059004F093
:1027500017F95F4A5F4BCDE9060104F066F8CDE951
:10276000080104F035F94F49486100204C49C88000
:1027700091E04B488088A0B14A484069059004F038
:10278000FFF8494A494BCDE9060103F0ADFFCDE919
:10279000080104F01DF94349486100204049888040
:1027A00016E03F48C08898B13E484069059004F063
:1027B000E7F83D4A3D4BCDE9060104F036F8CDE996
:1027C000080104F005F93749486100203449C88000
:1027D00061E030E0FFE732488088A0B131484069CD
:1027E000059004F0CDF8324A324BCDE9060103F0F2
:1027F0007BFFCDE9080104F0EBF82A49486100208D
:102800002749888016E02648C08898B12548406945
:10281000059004F0B5F8264A264BCDE9060104F0F0
:1028200004F8CDE9080104F0D3F81E4948610020FE
:102830001B49C8802FE01A488088A0B11948406918
:10284000059004F09DF81C4A1C4BCDE9060103F0ED
:102850004BFFCDE9080104F0BBF8124948610020A4
:102860000F49888016E00E48C08898B10D4840692D
:10287000059004F085F8104A104BCDE9060103F0ED
:10288000D4FFCDE9080104F0A3F80649486100200F
:102890000349C88000BF00BF00BF00BF0BB000BD30
:1028A00030000020E0000020FCA9F1D24D62503F32
:1028B0002D431CEBE2361A3FF168E388B5F8E43E9D
:1028C0000000C842000020419A9999999999B93F0E
:1028D0007B14AE47E17A843F10B5F7A003F007FE02
:1028E000FF2003F0E1FD4FF47A70FFF7F0F8F4A059
:1028F00003F0FDFDFF2003F0D7FD4FF4FA60FFF772
:10290000E6F810BD2DE9F04395B0EF49C868EF49EE
:1029100003F07AFE814604F01AF80546EA49086990
:10292000EA4903F071FE814604F011F80646E649D3
:10293000C86AE64903F068FE814604F008F80746D5
:10294000E3490868E34903F05FFE814603F0FFFFB7
:1029500004460A2094FBF0F84246DFA101A804F0E7
:1029600079FA01A803F0C3FDFF2003F09DFD2A467C
:10297000DBA114A804F06EFADAA003F0B8FD14A8E5
:1029800003F0B5FDFF2003F08FFD3246D4A113A85C
:1029900004F060FAD5A003F0AAFD13A803F0A7FD88
:1029A000FF2003F081FD3A46CDA112A804F052FAAF
:1029B000D0A003F09CFD12A803F099FDFF2003F0C6
:1029C00073FD2246C6A111A804F044FACBA003F07F
:1029D0008EFD11A803F08BFDFF2003F065FD15B0FF
:1029E000BDE8F0833EB5C7A207CA8DE8070026E020
:1029F0004FF47A70FFF76BF80020C54908706946FC
:102A0000C44803F09BFDB0B900BFC3A004F012FAA4
:102A1000012080F3138800BF00BFC248006800F4A3
:102A2000E060C1490843001DBE490860BFF3408F04
:102A300000BF00BFFEE73324BCA004F0FBF9B4489C
:102A400000780128D4D03EBD1FB59F48C0680190D2
:102A500003F096FF02460B46CDE90201B4A19A4865
:102A6000163004F0F7F9984816301021012364223B
:102A7000CDE900103221104603F0B5F8AEA003F006
:102A8000D6FA9148163003F0D2FA8F4800690190C7
:102A900003F076FF02460B46CDE90201A4A18A4865
:102AA000203004F0D7F98848203010210123642217
:102AB000CDE900104621104603F095F89FA003F0E1
:102AC000B6FA8148203003F0B2FA7F48C06A01901C
:102AD00003F056FF02460B46CDE9020198A17A4861
:102AE000303004F0B7F978483030102101236422E7
:102AF000CDE900105A21842003F075F8744800686D
:102B0000019003F03DFF02460B46CDE90201AFF212
:102B100088616F48001D04F09DF96D48001D10216B
:102B200001234022CDE900107821642003F05BF8F6
:102B300085A003F07CFA6648001D03F078FA64482B
:102B4000C068019003F01CFF02460B46CDE902016C
:102B500077A15F48183004F07DF95D4818301021E6
:102B60000123A022CDE900101146322003F03BF8EA
:102B700057480069019003F003FF02460B46CDE978
:102B800002016BA15248223004F064F9504822300F
:102B900010210123A022CDE90010B421322003F03E
:102BA00022F84B484069019003F0EAFE02460B46CA
:102BB000CDE902015EA146482C3004F04BF94448AF
:102BC0002C3010210123A022CDE90010C821322091
:102BD00003F009F85D4810210123A022CDE900107F
:102BE000C821962002F0FFFF5948007820B1012843
:102BF00060D002285FD141E356A01021012330228A
:102C0000CDE90010A021142002F0EDFF52A0102108
:102C100001233022CDE90010B421142002F0E3FF9B
:102C20004DA0102101233022CDE90010C82114202D
:102C300002F0D9FF4648407806283AD2DFE800F093
:102C4000038EC5FFFDFC4FF61F00B0233A22194644
:102C50000090322002F04AFD4FF6FF70B0234A2266
:102C600019460090422002F041FD4FF6FF70B0235C
:102C70005222194600904A2002F038FD4FF6FF70AC
:102C8000B0235A2219460090522002F02FFD4FF631
:102C9000FF70B0236222194600905A2002F026FDF0
:102CA0004FF6FF70B0236A2219460090622002F0AE
:102CB0001DFD69E16AE1E0E2636C73205245440066
:102CC0007061676520300000A400002000401C46B1
:102CD000E000002000007A4461646420312C302C34
:102CE0002564000078332E76616C3D0078322E76B4
:102CF000616C3D0078312E76616C3D0078302E7627
:102D0000616C3D00245245534554210D00000000E4
:102D100029000020900000204C454431204F4E0DEA
:102D20000A0000000CED00E00000FA054E4F000024
:102D300025342E35660000004100000042000000EE
:102D400025322E35660000004300000058000020A8
:102D5000300000203E3E3E00202020004FF6FF7055
:102D6000B0233A2219460090322002F0BFFC4FF601
:102D70001F00B0234A2219460090422002F0B6FC00
:102D80004FF6FF70B0235222194600904A2002F0FD
:102D9000ADFC4FF6FF70B0235A2219460090522026
:102DA00002F0A4FC4FF6FF70B02362221946009097
:102DB0005A2002F09BFC4FF6FF70B0236A2219469E
:102DC0000090622002F092FCDEE04FF6FF70B0232C
:102DD0003A2219460090322002F088FC4FF6FF702C
:102DE000B0234A2219460090422002F07FFC4FF6A1
:102DF0001F00B0235222194600904A2002F076FCB0
:102E00004FF6FF70B0235A2219460090522002F06C
:102E10006DFC4FF6FF70B0236222194600905A20D5
:102E200002F064FC4FF6FF70B0236A22194600904E
:102E3000622002F05BFCA7E06FE037E0FFE74FF6AF
:102E4000FF70B0233A2219460090322002F04EFC67
:102E50004FF6FF70B0234A2219460090422002F03C
:102E600045FC4FF6FF70B0235222194600904A20CD
:102E700002F03CFC4FF61F00B0235A221946009086
:102E8000522002F033FC4FF6FF70B0236222194645
:102E900000905A2002F02AFC4FF6FF70B0236A22FD
:102EA00019460090622002F021FC6DE04FF6FF70A1
:102EB000B0233A2219460090322002F017FC4FF658
:102EC000FF70B0234A2219460090422002F00EFC07
:102ED0004FF6FF70B0235222194600904A2002F0AC
:102EE00005FC4FF6FF70B0235A221946009052207D
:102EF00002F0FCFB4FF61F00B0236222194600903F
:102F00005A2002F0F3FB4FF6FF70B0236A221946F5
:102F10000090622002F0EAFB36E04FF6FF70B0232B
:102F20003A2219460090322002F0E0FB4FF6FF7083
:102F3000B0234A2219460090422002F0D7FB4FF6F8
:102F4000FF70B0235222194600904A2002F0CEFBB7
:102F50004FF6FF70B0235A2219460090522002F01B
:102F6000C5FB4FF6FF70B0236222194600905A202D
:102F700002F0BCFB4FF61F00B0236A2219460090F6
:102F8000622002F0B3FB00BF00BFF4E3AFF23820D1
:102F9000102101233022CDE90010A021142002F0DD
:102FA00022FEAFF25020102101233022CDE9001083
:102FB000B421142002F017FEAFF264201021012387
:102FC0003022CDE90010C821142002F00CFEFE488A
:102FD000807806283AD2DFE800F0033A71A8DFFDD6
:102FE0004FF61F00C4233A2219460090322002F007
:102FF0007DFB4FF6FF70C4234A2219460090422001
:1030000002F074FB4FF6FF70C42352221946009061
:103010004A2002F06BFB4FF6FF70C4235A22194678
:103020000090522002F062FB4FF6FF70C423622230
:10303000194600905A2002F059FB4FF6FF70C42346
:103040006A2219460090622002F050FB14E14FF60C
:10305000FF70C4233A2219460090322002F046FB4A
:103060004FF61F00C4234A2219460090422002F066
:103070003DFB4FF6FF70C4235222194600904A20B0
:1030800002F034FB4FF6FF70C4235A221946009019
:10309000522002F02BFB4FF6FF70C4236222194628
:1030A00000905A2002F022FB4FF6FF70C4236A22E0
:1030B00019460090622002F019FBDDE04FF6FF7028
:1030C000C4233A2219460090322002F00FFB4FF63B
:1030D000FF70C4234A2219460090422002F006FBEA
:1030E0004FF61F00C4235222194600904A2002F0D6
:1030F000FDFA4FF6FF70C4235A2219460090522061
:1031000002F0F4FA4FF6FF70C423622219460090D1
:103110005A2002F0EBFA4FF6FF70C4236A221946D8
:103120000090622002F0E2FAA6E04FF6FF70C4239E
:103130003A2219460090322002F0D8FA4FF6FF707A
:10314000C4234A2219460090422002F0CFFA4FF6DB
:10315000FF70C4235222194600904A2002F0C6FA9A
:103160004FF61F00C4235A2219460090522002F045
:10317000BDFA4FF6FF70C4236222194600905A2010
:1031800002F0B4FA4FF6FF70C4236A221946009089
:10319000622002F0ABFA6FE04FF6FF70C4233A22D0
:1031A00019460090322002F0A1FA4FF6FF70C423B6
:1031B0004A2219460090422002F098FA4FF6FF701A
:1031C000C4235222194600904A2002F08FFA4FF68B
:1031D000FF7000E019E0C4235A22194600905220E3
:1031E00002F084FA4FF61F00C423622219460090B1
:1031F0005A2002F07BFA4FF6FF70C4236A22194668
:103200000090622002F072FA36E04FF6FF70C4239D
:103210003A2219460090322002F068FA4FF6FF7009
:10322000C4234A2219460090422002F05FFA4FF66A
:10323000FF70C4235222194600904A2002F056FA29
:103240004FF6FF70C4235A2219460090522002F014
:103250004DFA4FF6FF70C4236222194600905A209F
:1032600002F044FA4FF61F00C4236A221946009068
:10327000622002F03BFA00BF00BF7CE2AFF22850B0
:10328000102101233022CDE90010A021142002F0EA
:10329000AAFCAFF23C50102101233022CDE90010EE
:1032A000B421142002F09FFCAFF2585010210123EA
:1032B0003022CDE90010C821142002F094FC4248CD
:1032C000C07808284DD2DFE800F0044D99E2FEFDF9
:1032D000FCFB4FF61F00D8234222194600903A20EB
:1032E00002F004FA4FF6FF70D8234A2219460090E4
:1032F000422002F0FBF94FF6FF70D8235222194604
:1033000000904A2002F0F2F94FF6FF70D8236222B3
:10331000194600905A2002F0E9F94FF6FF70D823C1
:103320006A2219460090622002F0E0F94FF6FF7021
:10333000D8237222194600906A2002F0D7F94FF67E
:10334000FF70D8237A2219460090722002F0CEF93D
:103350004FF6FF70D8238222194600907A2002F09F
:10336000C5F906E24FF6FF70D823422219460090B5
:103370003A2002F0BBF94FF61F00D8234A22194623
:103380000090422002F0B2F94FF6FF70D82352228B
:10339000194600904A2002F0A9F94FF6FF70D82391
:1033A0006222194600905A2002F0A0F94FF6FF70F1
:1033B000D8236A2219460090622002F097F94FF64E
:1033C000FF70D823722201E03000002019460090DF
:1033D0006A2002F08BF94FF6FF70D8237A22194643
:1033E0000090722002F082F94FF6FF70D8238222FB
:1033F000194600907A2002F079F9BAE14FF6FF7091
:10340000D8234222194600903A2002F06FF94FF675
:10341000FF70D8234A2219460090422002F066F934
:103420004FF61F00D8235222194600904A2002F07E
:103430005DF94FF6FF70D8236222194600905A209A
:1034400002F054F94FF6FF70D8236A221946009013
:10345000622002F04BF94FF6FF70D8237222194612
:1034600000906A2002F042F94FF6FF70D8237A22CA
:1034700019460090722002F039F94FF6FF70D823F8
:103480008222194600907A2002F030F971E14FF65D
:10349000FF70D8234222194600903A2002F026F904
:1034A0004FF6FF70D8234A2219460090422002F0BE
:1034B0001DF94FF6FF70D82352221946009003E001
:1034C0000EE1C4E07AE030E04A2002F00FF94FF656
:1034D0001F00D8236222194600905A2002F006F9F4
:1034E0004FF6FF70D8236A2219460090622002F03E
:1034F000FDF84FF6FF70D8237222194600906A201B
:1035000002F0F4F84FF6FF70D8237A2219460090A3
:10351000722002F0EBF84FF6FF70D8238222194692
:1035200000907A2002F0E2F823E14FF6FF70D823F2
:103530004222194600903A2002F0D8F84FF6FF7068
:10354000D8234A2219460090422002F0CFF84FF6C5
:10355000FF70D8235222194600904A2002F0C6F884
:103560004FF6FF70D8236222194600905A2002F0CD
:10357000BDF84FF61F00D8236A221946009062203A
:1035800002F0B4F84FF6FF70D8237222194600906B
:103590006A2002F0ABF84FF6FF70D8237A22194662
:1035A0000090722002F0A2F84FF6FF70D82382221A
:1035B000194600907A2002F099F8DAE04FF6FF7091
:1035C000D8234222194600903A2002F08FF84FF695
:1035D000FF70D8234A2219460090422002F086F854
:1035E0004FF6FF70D8235222194600904A2002F06D
:1035F0007DF84FF6FF70D8236222194600905A20BA
:1036000002F074F84FF6FF70D8236A221946009032
:10361000622002F06BF84FF61F00D8237222194681
:1036200000906A2002F062F84FF6FF70D8237A22E9
:1036300019460090722002F059F84FF6FF70D82317
:103640008222194600907A2002F050F891E04FF65D
:10365000FF70D8234222194600903A2002F046F823
:103660004FF6FF70D8234A2219460090422002F0FC
:103670003DF84FF6FF70D8235222194600904A2099
:1036800002F034F84FF6FF70D823622219460090FA
:103690005A2002F02BF84FF6FF70D8236A22194601
:1036A0000090622002F022F84FF6FF70D8237222B9
:1036B000194600906A2002F019F84FF61F00D8232F
:1036C0007A2219460090722002F010F84FF6FF702F
:1036D000D8238222194600907A2002F007F848E0A9
:1036E0004FF6FF70D8234222194600903A2001F08D
:1036F000FDFF4FF6FF70D8234A2219460090422062
:1037000001F0F4FF4FF6FF70D823522219460090C3
:103710004A2001F0EBFF4FF6FF70D82362221946D2
:1037200000905A2001F0E2FF4FF6FF70D8236A2282
:1037300019460090622001F0D9FF4FF6FF70D823A0
:103740007222194600906A2001F0D0FF4FF6FF70F8
:10375000D8237A2219460090722001F0C7FF4FF655
:103760001F00D8238222194600907A2001F0BEFF64
:1037700000BF00BF00BF00BF1FBD10B50220FCF797
:1037800027FF68B13F480078401C3E490870084652
:103790000078022801DD002008700220FCF729FFD4
:1037A00010BD10B50120FCF713FF00282FD03548BD
:1037B000007820B101280ED0022824D117E031482A
:1037C0004078401C2F49487008464078052801DDA4
:1037D0000020487017E02B488078401C29498870E9
:1037E00008468078052801DD002088700BE0254818
:1037F000C078401C2349C8700846C078082801DDFD
:103800000020C87000BF00BF0120FCF7F2FE10BD11
:1038100010B50820FCF7DCFE28B10120194988808A
:103820000820FCF7E6FE10BD10B51020FCF7D0FE16
:1038300028B101201349C8801020FCF7DAFE10BD22
:1038400010B54FF40050FCF7C3FED0B10E4800682D
:10385000401C0D490860086800EBD0714910A0EBCE
:10386000410129B14FF400610848FDF7E0FA04E096
:103870004FF400610548FDF7D8FA4FF40050FCF70B
:10388000B8FE10BD30000020540000200020014090
:103890004FF0C04108807047FB4908807047FA48E4
:1038A000008870474FF0C0421080F74A118070477F
:1038B00000B502461046FFF7EBFFFFF7F0FF00BD33
:1038C000F248C0794FF0C04108807047EE49088047
:1038D000704730B5014601F01F04C1F34513CA0A11
:1038E000E50205EB43151544A8B230BD00BF010049
:1038F000A0F10102D0B2FAD1704710B503460C46D0
:10390000E248808849F24131884205D0DF4880880A
:1039100046F60401884214D1DC49087AFFF7B8FF63
:103920001812FFF7B9FFD8B2FFF7B6FFD749487AA8
:10393000FFF7AEFF2012FFF7AFFFE0B2FFF7ACFFDB
:1039400012E0D2488079012804D1D0480088401E76
:10395000C01A83B2CD49087A1946FFF7A3FFCB49B5
:10396000487A2146FFF79EFF10BD2DE9F04105463C
:103970000E4600240027A046C4480088A84203DD64
:10398000C2484088B04202DC0020BDE8F0813146E8
:103990002846FFF7B2FFBD48808849F2413188428E
:1039A00005D0BA48808846F60401884203D12E200B
:1039B000FFF76EFF02E02220FFF76AFFB34880881E
:1039C00049F22031884202D10220FFF78FFFAE4832
:1039D000008800B100240220FFF788FFAA4804886D
:1039E000AA48808849F2413188420BD10220FFF772
:1039F0007DFFA548B0F80080E7B24FF6FF7000EAFF
:103A0000072707E0A148808846F60401884201D1D3
:103A10009D4804889D48808849F22531884216D007
:103A20009A48808844F23551884210D0974880885F
:103A3000091F88420BD09548808848F68911884232
:103A400005D0924880884BF20551884201D120462A
:103A50009BE78E48808849F24131884207D1E012C5
:103A6000C002B91240EA411040EAE8208DE7204642
:103A7000FFF72FFF89E700B58448808849F241317C
:103A8000884205D08148808846F60401884203D1E7
:103A90002920FFF7FDFE04E040F273110720FFF735
:103AA00001FF00BD00B57948808849F24131884264
:103AB00005D07648808846F60401884203D1282044
:103AC000FFF7E6FE03E000210720FFF7EBFE00BD55
:103AD00070B50446002300266C48807901281ED169
:103AE0006A48808846F60401884218D0082C15D20E
:103AF000DFE804F00406080A0C0E101206240DE09C
:103B000007240BE0042409E0052407E0012405E074
:103B1000002403E0032401E0022400BF00BF5B484F
:103B2000808849F24131884205D05848808846F65D
:103B3000040188427CD1082C1CD2DFE804F0040682
:103B4000090C0F12151800BF14E043F0800311E0B8
:103B500043F040030EE043F0C0030BE043F02003CA
:103B600008E043F0600305E043F0A00302E043F007
:103B7000E00300BF00BF362643F0080343488088B7
:103B800046F60401884201D143F00203194630464B
:103B9000FFF788FE03F0200068B13C4800883B49ED
:103BA0004988884214DA39480588408837490880AE
:103BB000084645800CE035480088344949888842E9
:103BC00006DD32480588408830490880084645802F
:103BD0002E49087AFFF75CFE0020FFF75DFE00200B
:103BE000FFF75AFE29490988491EC1F30F20FFF744
:103BF00053FE26490978491EC8B2FFF74DFE2349F6
:103C0000487AFFF745FE0020FFF746FE0020FFF749
:103C100043FE1E494988491EC1F30F20FFF73CFEB1
:103C20001A498978491EC8B2FFF736FE37E0FFE728
:103C3000082C1CD2DFE804F004070A0D0F12151837
:103C400043F0300313E043F0100310E043F020038F
:103C50000DE000BF0BE043F0380308E043F0280319
:103C600005E043F0180302E043F0080300BF00BF83
:103C70000648808848F68911884209D1112646F203
:103C80004000034307E00000000002608C010020B8
:103C9000032643F4805319463046FFF703FE70BDF8
:103CA00030B504460D4629462046FFF726FEFFF7AD
:103CB00007FEFE480088FE49088030BD30B5034647
:103CC0000C461546FB48808849F24131884205D0B0
:103CD000F848808846F60401884214D1F549087AEC
:103CE000FFF7D6FD1812FFF7D7FDD8B2FFF7D4FDC6
:103CF000F049487AFFF7CCFD2012FFF7CDFDE0B286
:103D0000FFF7CAFD12E0EB488079012804D1E948A9
:103D10000088401EC01A83B2E649087A1946FFF7A8
:103D2000C1FDE449487A2146FFF7BCFDE148C0796E
:103D30004FF0C0410880DE48058030BD10B5044614
:103D4000002C3DD1DB498871F02008804FF4A07031
:103D500048800846808849F24131884205D0D548DC
:103D6000808846F60401884214D12C20D149C871BC
:103D70002A2008722B2048720846808846F60401E3
:103D800088424ED14FF4A070CA4908804FF4F070B9
:103D9000488046E0C748808848F68911884207D1A4
:103DA0002220C449C8714E2008724F20487238E062
:103DB0002220C049C871202008722120487230E0BA
:103DC000BC48808846F6040188422AD00120B949BF
:103DD00088714FF4A0700880F020488008468088E1
:103DE00049F24131884207D12C20B249C8712A20BA
:103DF00008722B20487214E0AE48808848F689117A
:103E0000884207D12220AB49C8714F2008724E204A
:103E1000487206E02220A749C8712120087220209C
:103E200048720520FFF754FE10BD00B597B0022080
:103E3000019000200290052003900020049005903E
:103E400006904FF0805007900020089009900820BD
:103E50000A9010200B9000200C900E900F90109064
:103E60004FF480501190002012901390149001A8EC
:103E70001590169008A8FCF711FC01210020FCF712
:103E800075FD17B000BD08B5FFF7CFFF012108028F
:103E9000FDF733FA01216820FDF73CFA4CF203707C
:103EA000ADF8000003208DF8020018208DF8030003
:103EB00069468148FCF70CFF4FF68070ADF80000B2
:103EC00003208DF8020018208DF8030069467B4816
:103ED000FCF7FEFE0220ADF8000003208DF8020082
:103EE00010208DF8030069467448FCF7F1FE0221AA
:103EF0007248FCF79AFF4FF40050ADF80000032021
:103F00008DF8020010208DF8030069466A48FCF71E
:103F1000DFFE4FF40B60ADF8000003208DF80200C7
:103F200018208DF8030069466348FCF7D1FE4FF670
:103F30008070ADF8000018208DF8030003208DF884
:103F4000020069465D48FCF7C3FE8020ADF8000022
:103F500018208DF8030003208DF8020069465648AA
:103F6000FCF7B6FE02215548FCF761FF40F6FF70F2
:103F7000FDF7ADFD02215148FCF757FF40F6FF70F9
:103F8000FDF7A5FD0020FFF793FC4A49888008460D
:103F90008088FF280ADB084680884FF6FF71884238
:103FA00004D044488088B0F5134F4BD1D320FFF79D
:103FB0006FFCFFF774FCFFF772FCFFF770FC3D49E4
:103FC0008880084680884FF6FF7101EA0020394951
:103FD0008880FFF764FC3749898808433549888021
:103FE0000846808849F2413188421BD0BF20FFF744
:103FF0004FFCFFF754FCFFF752FCFFF750FCFFF7B4
:104000004EFC2C498880084680884FF6FF7101EAF3
:10401000002028498880FFF742FC26498988084308
:10402000244988802348808849F24131884209D058
:104030002048808846F60401884203D049F2413086
:104040001C4988801B48808849F2413188427DD1D3
:10405000CF20FFF71DFC0020FFF71EFCC120FFF75B
:104060001BFC3020FFF718FCED20FFF711FC64204B
:10407000FFF712FC0320FFF70FFC1220FFF70CFCE8
:104080008120FFF709FCE820FFF702FC8520FFF7FD
:1040900003FC1020FFF700FC7A20FFF7FDFBCB208C
:1040A000FFF7F6FB3920FFF7F7FB09E06C00002073
:1040B000000002608C010020001401400018014043
:1040C0002C20FFF7E9FB0020FFF7E6FB3420FFF789
:1040D000E3FB0220FFF7E0FBF720FFF7D9FB2020EE
:1040E000FFF7DAFBEA20FFF7D3FB0020FFF7D4FB52
:1040F0000020FFF7D1FBC020FFF7CAFB1B20FFF712
:10410000CBFBC120FFF7C4FB0120FFF7C5FBC52097
:10411000FFF7BEFB3020FFF7BFFB3020FFF7BCFBF3
:10412000C720FFF7B5FBB720FFF7B6FB3620FFF738
:10413000AFFB4820FFF7B0FB3A20FFF7A9FB552063
:10414000FFF7AAFBB120FFF7A3FB00E0A3E00020EC
:10415000FFF7A2FB1A20FFF79FFBB620FFF798FBA3
:104160000A20FFF799FBA220FFF796FBF220FFF74A
:104170008FFB0020FFF790FB2620FFF789FB012033
:10418000FFF78AFBE020FFF783FB0F20FFF784FB9C
:104190002A20FFF781FB2820FFF77EFB0820FFF78E
:1041A0007BFB0E20FFF778FB0820FFF775FB542000
:1041B000FFF772FBA920FFF76FFB4320FFF76CFBB3
:1041C0000A20FFF769FB0F20FFF766FB0020FFF7CF
:1041D00063FB0020FFF760FB0020FFF75DFB002082
:1041E000FFF75AFBE120FFF753FB0020FFF754FBDA
:1041F0001520FFF751FB1720FFF74EFB0720FFF7B5
:104200004BFB1120FFF748FB0620FFF745FB2B2057
:10421000FFF742FB5620FFF73FFB3C20FFF73CFB3C
:104220000520FFF739FB1020FFF736FB0F20FFF7C3
:1042300033FB3F20FFF730FB3F20FFF72DFB0F2024
:10424000FFF72AFB2B20FFF723FB0020FFF724FBBF
:104250000020FFF721FB0120FFF71EFB3F20FFF7A7
:104260001BFB2A20FFF714FB0020FFF715FB0020A3
:10427000FFF712FB0020FFF70FFBEF20FFF70CFB0F
:104280001120FFF705FB7820FDF721FC2920FFF71F
:10429000FFFA01F015BAFE48808846F6040188420C
:1042A0007ED11120FFF7F4FA1420FDF710FCD02086
:1042B000FFF7EEFA0720FFF7EFFA4220FFF7ECFADC
:1042C0001D20FFF7E9FAD120FFF7E2FA0020FFF7FF
:1042D000E3FA1A20FFF7E0FA0920FFF7DDFAD2200F
:1042E000FFF7D6FA0120FFF7D7FA2220FFF7D4FA1A
:1042F000C020FFF7CDFA1020FFF7CEFA3B20FFF7E2
:10430000CBFA0020FFF7C8FA0220FFF7C5FA112008
:10431000FFF7C2FAC520FFF7BBFA0320FFF7BCFA8C
:10432000C820FFF7B5FA0020FFF7B6FA2520FFF7FF
:10433000B3FA2120FFF7B0FA0520FFF7ADFA00200D
:10434000FFF7AAFA0A20FFF7A7FA6520FFF7A4FAF9
:104350002520FFF7A1FA7720FFF79EFA5020FFF7FC
:104360009BFA0F20FFF798FA0020FFF795FAF82044
:10437000FFF78EFA0120FFF78FFAFE20FFF788FA89
:104380000020FFF789FA0220FFF786FA2020FFF7C6
:104390007FFA3620FFF77CFA0820FFF77DFA00E06D
:1043A0002AE03A20FFF774FA5520FFF775FA2B2020
:1043B000FFF76EFA0020FFF76FFA0020FFF76CFAA4
:1043C0000120FFF769FA3F20FFF766FA2A20FFF77E
:1043D0005FFA0020FFF760FA0020FFF75DFA012086
:1043E000FFF75AFADF20FFF757FA7820FDF76FFB47
:1043F0002920FFF74DFA4CE7A548808849F225317E
:1044000088427DD147F6F001E520FFF74BFA4FF4E3
:1044100080710120FFF746FA4FF4E0610220FFF7B8
:1044200041FA41F230010320FFF73CFA0021042059
:10443000FFF738FA40F202210820FFF733FA002193
:104440000920FFF72FFA00210A20FFF72BFA00219D
:104450000C20FFF727FA00210D20FFF723FA002197
:104460000F20FFF71FFA00211020FFF71BFA07218A
:104470001120FFF717FA00211220FFF713FA00218D
:104480001320FFF70FFA00210720FFF70BFA41F284
:1044900090611020FFF706FA40F227211120FFF764
:1044A00001FA9D211220FFF7FDF94FF4C8511320A6
:1044B000FFF7F8F925212920FFF7F4F90D212B202A
:1044C000FFF7F0F907213020FFF7ECF940F2033154
:1044D0003120FFF7E7F903213220FFF7E3F940F23B
:1044E00006213520FFF7DEF908213620FFF7DAF93B
:1044F00040F206413720FFF7D5F94FF4417100E053
:1045000058E03820FFF7CEF907213920FFF7CAF924
:1045100040F202613C20FFF7C5F908213D20FFF77A
:10452000C1F900215020FFF7BDF9EF215120FFF71D
:10453000B9F900215220FFF7B5F940F23F1153209D
:10454000FFF7B0F94FF427416020FFF7ABF90121E5
:104550006120FFF7A7F900216A20FFF7A3F90021E6
:104560008020FFF79FF900218120FFF79BF90021B0
:104570008220FFF797F900218320FFF793F90021AC
:104580008420FFF78FF900218520FFF78BF9102198
:104590009020FFF787F94FF4C0619220FFF782F96E
:1045A00040F233110720FFF77DF922210020FFF7A9
:1045B00079F96EE63648808849F22831884269D117
:1045C00041F28F01EC20FFF76DF941F23421EF2029
:1045D000FFF768F94FF480710120FFF763F94FF49A
:1045E000E0610220FFF75EF941F230010320FFF79E
:1045F00059F900210420FFF755F940F20221082063
:10460000FFF750F900210920FFF74CF900210A209B
:10461000FFF748F901210C20FFF744F900210D2094
:10462000FFF740F900210F20FFF73CF9002110208F
:10463000FFF738F907211120FFF734F90021122084
:10464000FFF730F900211320FFF72CF90121072093
:10465000FFF728F93220FDF73AFA41F29041102095
:10466000FFF720F940F227211120FFF71BF9322034
:10467000FDF72DFA8A211220FFF714F93220FDF7F9
:1046800026FA4FF4D0511320FFF70CF9062102E06F
:104690008C0100208BE02920FFF704F90D212B204D
:1046A000FFF700F93220FDF712FA00212020FFF772
:1046B000F9F800212120FFF7F5F83220FDF707FA7D
:1046C00000213020FFF7EEF840F204613120FFF7BF
:1046D000E9F840F205313220FFF7E4F800213520F7
:1046E000FFF7E0F840F609413620FFF7DBF84FF41A
:1046F00001713720FFF7D6F840F201313820FFF77B
:10470000D1F840F207713920FFF7CCF800213C20A6
:10471000FFF7C8F840F60A213D20FFF7C3F8322022
:10472000FDF7D5F900215020FFF7BCF8EF2151200B
:10473000FFF7B8F800215220FFF7B4F840F23F111C
:104740005320FFF7AFF84FF427416020FFF7AAF896
:1047500001216120FFF7A6F800216A20FFF7A2F8E7
:1047600000218020FFF79EF800218120FFF79AF8B2
:1047700000218220FFF796F800218320FFF792F8AE
:1047800000218420FFF78EF800218520FFF78AF8AA
:1047900010219020FFF786F84FF4C0619220FFF7B8
:1047A00081F840F233110720FFF77CF871E5FE48ED
:1047B000808849F2203188427ED100210846FFF7E7
:1047C00071F84FF480710120FFF76CF84FF4E0614D
:1047D0000220FFF767F841F230010320FFF762F88B
:1047E00000210420FFF75EF840F202210820FFF7C5
:1047F00059F800210920FFF755F800210A20FFF79A
:1048000051F801210C20FFF74DF800210D20FFF792
:1048100049F800210F20FFF745F83220FDF757F93E
:1048200040F201110720FFF73DF83220FDF74FF964
:104830004FF486511020FFF735F807211120FFF7BC
:1048400031F84FF488711220FFF72CF84FF43061E3
:104850001320FFF727F800212920FFF723F844F25F
:1048600010012B20FFF71EF800215020FFF71AF847
:10487000EF215120FFF716F800215220FFF712F820
:1048800040F23F115320FFF70DF84FF41C51602008
:10489000FFF708F801216120FFF704F800216A20E2
:1048A000FFF700F800218020FEF7FCFF00218120A7
:1048B000FEF7F8FF002100E02DE08220FEF7F2FF76
:1048C00000218320FEF7EEFF00218420FEF7EAFF9F
:1048D00000218520FEF7E6FF10219020FEF7E2FF81
:1048E00000219220FEF7DEFF01219320FEF7DAFF80
:1048F0004FF488719520FEF7D5FF00219720FEF731
:10490000D1FF00219820FEF7CDFF40F27311072060
:10491000FEF7C8FFBDE4A448808849F231318842DF
:104920007DD141F21401E720FEF7BCFF4FF4807106
:104930000120FEF7B7FF4FF400710220FEF7B2FF2F
:1049400041F238010320FEF7ADFF40F202210820BA
:10495000FEF7A8FF00210920FEF7A4FF00210A208E
:10496000FEF7A0FF00210C20FEF79CFF00210D2088
:10497000FEF798FF00210F20FEF794FF0021102082
:10498000FEF790FF07211120FEF78CFF0021122077
:10499000FEF788FF00211320FEF784FFC820FDF7F3
:1049A00096F841F290611020FEF77CFF40F227213B
:1049B0001120FEF777FF3220FDF789F80C21122035
:1049C000FEF770FF3220FDF782F84FF400611320EC
:1049D000FEF768FF11212920FEF764FF0B212B2031
:1049E000FEF760FF3220FDF772F800212020FEF76D
:1049F00059FF40F23F112120FEF754FF00213020E3
:104A0000FEF750FF4FF483713120FEF74BFF00217A
:104A10003220FEF747FF4FF40171352000E064E0DB
:104A2000FEF740FF41F20A613620FEF73BFF40F2FD
:104A300007713720FEF736FF4FF483713820FEF7F9
:104A400031FF40F207713920FEF72CFF40F202419E
:104A50003C20FEF727FF40F60F413D20FEF722FFE6
:104A600000215020FEF71EFFEF215120FEF71AFF14
:104A700000215220FEF716FF40F23F115320FEF7AF
:104A800011FF4FF41C516020FEF70CFF0121612043
:104A9000FEF708FF00216A20FEF704FF00218020B6
:104AA000FEF700FF00218120FEF7FCFE002182209E
:104AB000FEF7F8FE00218320FEF7F4FE002184209B
:104AC000FEF7F0FE00218520FEF7ECFE102190207D
:104AD000FEF7E8FE4FF4C0619220FEF7E3FE40F2DD
:104AE00033110720FEF7DEFE85E42F48808845F26B
:104AF000084188427DD14FF480710120FEF7D2FE3B
:104B00004FF4E0610220FEF7CDFE41F230010320B8
:104B1000FEF7C8FE00210420FEF7C4FE40F2072184
:104B20000820FEF7BFFE00210920FEF7BBFE002192
:104B30000A20FEF7B7FE00210C20FEF7B3FE00218D
:104B40000D20FEF7AFFE00210F20FEF7ABFE142074
:104B5000FCF7BDFF41F2B0611020FEF7A3FE01217A
:104B60001120FEF79FFE01211720FEF79BFE4FF458
:104B70009C711220FEF796FE4FF400611320FEF7A1
:104B800091FE09212920FEF78DFE09212A20FEF73A
:104B900089FE0021A420FEF785FE00215020FEF7AB
:104BA00081FEEF21512001E08C010020FEF77AFE0A
:104BB00000215220FEF776FE40F23F115320FEF70F
:104BC00071FE4FF41C516020FEF76CFE0121612044
:104BD000FEF768FE00216A20FEF764FE00218020B7
:104BE000FEF760FE00218120FEF75CFE002182209E
:104BF00000E027E0FEF756FE00218320FEF752FE7C
:104C000000218420FEF74EFE00218520FEF74AFE9B
:104C100013219020FEF746FE00219220FEF742FE6F
:104C200003219320FEF73EFE4FF488719520FEF796
:104C300039FE40F273110720FEF734FE3220FCF7F4
:104C400046FFB6E4FE48808841F2055188427DD196
:104C500000210720FEF726FE3220FCF738FF4FF434
:104C60008E711220FEF71EFE0121A420FEF71AFE0F
:104C70000F210820FEF716FE08210A20FEF712FE7B
:104C800008210D20FEF70EFE40F207713020FEF7DE
:104C900009FE07213120FEF705FE40F203613220B4
:104CA000FEF700FE4FF4E0613320FEF7FBFD40F21B
:104CB00002213420FEF7F6FD02213520FEF7F2FD39
:104CC00041F60F713620FEF7EDFD40F207713720F7
:104CD000FEF7E8FD00213820FEF7E4FD0021392031
:104CE000FEF7E0FD40F207713A20FEF7DBFD002100
:104CF0003B20FEF7D7FD07213C20FEF7D3FD002126
:104D00003D20FEF7CFFD3220FCF7E1FE0121072018
:104D1000FEF7C8FD01211720FEF7C4FD3220FCF785
:104D2000D6FE4FF4BD511020FEF7BCFD40F2172116
:104D30001120FEF7B7FD4FF48F711220FEF7B2FD80
:104D40004FF470611320FEF7ADFD00E095E0002107
:104D50002A20FEF7A7FD0A212920FEF7A3FD4FF424
:104D60009F711220FEF79EFD00215020FEF79AFD54
:104D7000EF215120FEF796FD00215220FEF792FD13
:104D800040F23F115320FEF78DFD4FF41C5160207F
:104D9000FEF788FD01216120FEF784FD00216A20D5
:104DA000FEF780FD00218020FEF77CFD00218120A0
:104DB000FEF778FD00218220FEF774FD002183209C
:104DC000FEF770FD00218420FEF76CFD0021852098
:104DD000FEF768FD13219020FEF764FD4FF440714B
:104DE0009220FEF75FFD05219320FEF75BFD002179
:104DF0009520FEF757FD00219720FEF753FD002177
:104E00009820FEF74FFD4FF480710120FEF74AFD18
:104E10004FF4E0610220FEF745FD41F23801032026
:104E2000FEF740FD00210420FEF73CFD00210C2090
:104E3000FEF738FD00210F20FEF734FD0021202071
:104E4000FEF730FD00212120FEF72CFD2121072057
:104E5000FEF728FD1420FCF73AFE61210720FEF73B
:104E600021FD1420FCF733FE40F273110720FEF7FA
:104E700019FD1420FCF72BFE98E4714880884BF252
:104E8000055188427ED100210846FEF70BFD002126
:104E90000846FEF707FD00210846FEF703FD002146
:104EA0000846FEF7FFFC0121A420FEF7FBFC1420BE
:104EB000FCF70DFE4FF41C516020FEF7F3FC40F2AE
:104EC00002210820FEF7EEFC4FF405713020FEF7BA
:104ED000E9FC43F215713120FEF7E4FC40F2046175
:104EE0003220FEF7DFFC40F616613320FEF7DAFCD5
:104EF00042F211213420FEF7D5FC4FF4A8513520A1
:104F0000FEF7D0FC48F207513620FEF7CBFC41F209
:104F100007413720FEF7C6FC41F203413820FEF777
:104F2000C1FC20213920FEF7BDFC1A219020FEF79C
:104F3000B9FC00211020FEF7B5FC07211120FEF777
:104F4000B1FC00211220FEF7ADFC00211320FEF77A
:104F5000A9FC1420FCF7BBFD4FF4E6611020FEF71E
:104F6000A1FC40F237111120FEF79CFC1420FCF745
:104F7000AEFD4FF4DC711220FEF794FC1420FCF718
:104F8000A6FD00E087E04FF470611320FEF78AFC75
:104F900080212A20FEF786FC48212920FEF782FC8A
:104FA0001420FCF794FD4FF480710120FEF77AFC89
:104FB0004FF4E0610220FEF775FC41F23801032056
:104FC000FEF770FC40F202210820FEF76BFC002186
:104FD0000A20FEF767FC00210C20FEF763FC00218D
:104FE0000D20FEF75FFC30210E20FEF75BFC002158
:104FF0005020FEF757FCEF215120FEF753FC002113
:105000005220FEF74FFC40F23F115320FEF74AFCBE
:105010004FF41C516020FEF745FC01216120FEF792
:1050200041FC00216A20FEF73DFC11219020FEF793
:1050300039FC4FF4C0619220FEF734FC02E000001E
:105040008C01002040F202419320FEF72BFC02214C
:105050009420FEF727FC1420FCF739FD01210720DE
:10506000FEF720FC1420FCF732FD61210720FEF73B
:1050700019FC40F273110720FEF714FC00212020D8
:10508000FEF710FC00212120FEF70CFC222100205D
:10509000FEF708FC14E3FE4880884CF20551884274
:1050A0007ED100210846FEF7FDFB00210846FEF7F1
:1050B000F9FB1420FCF70BFD00210846FEF7F2FB7C
:1050C00000210846FEF7EEFB00210846FEF7EAFB4A
:1050D00000210846FEF7E6FB0121A420FEF7E2FBD3
:1050E0001420FCF7F4FC4FF41C516020FEF7DAFBAF
:1050F00040F606010820FEF7D5FB40F20371302090
:10510000FEF7D0FB01213120FEF7CCFB0421322039
:10511000FEF7C8FB4FF481713320FEF7C3FB4FF459
:1051200040713420FEF7BEFB40F203113520FEF73C
:10513000B9FB1F213620FEF7B5FB40F20371372083
:10514000FEF7B0FB01213820FEF7ACFB042139202B
:10515000FEF7A8FB15219020FEF7A4FB4FF4826117
:105160001020FEF79FFB40F247211120FEF79AFB2B
:105170004FF4DE711220FEF795FB4FF460611320AF
:10518000FEF790FB7820FCF7A2FC4FF48071012021
:10519000FEF788FB4FF400710220FEF783FB00E06E
:1051A00050E041F230010320FEF77CFB08210A2089
:1051B000FEF778FB00210C20FEF774FB20210E2067
:1051C000FEF770FB00210F20FEF76CFB0021202072
:1051D000FEF768FB00212120FEF764FB3D212A2019
:1051E000FEF760FB1420FCF772FC2D212920FEF74E
:1051F00059FB00215020FEF755FB4DF2EF015120E5
:10520000FEF750FB00215220FEF74CFB40F23F110D
:105210005320FEF747FB00216120FEF743FB0021EE
:105220006A20FEF73FFB4FF440719220FEF73AFBF5
:1052300005219320FEF736FB4FF480710720FEF71F
:1052400031FB3DE29248808848F6891188427DD141
:1052500001210020FEF726FB4AF6A4010320FEF7F9
:1052600021FB00210C20FEF71DFB40F60C010D2058
:10527000FEF718FB4FF42C510E20FEF713FBB02164
:105280001E20FEF70FFB42F63F310120FEF70AFB1E
:105290004FF4C0610220FEF705FB00211020FEF74D
:1052A00001FB46F278011120FEF7FCFA00210520EF
:1052B000FEF7F8FA00210620FEF7F4FA4EF61C710C
:1052C0001620FEF7EFFA03211720FEF7EBFA40F263
:1052D00033210720FEF7E6FA00210B20FEF7E2FA61
:1052E00000210F20FEF7DEFA00214120FEF7DAFA56
:1052F00000214220FEF7D6FA00214820FEF7D2FA1C
:1053000040F23F114920FEF7CDFA00214A20FEF776
:10531000C9FA00214B20FEF7C5FA4FF46F41442033
:10532000FEF7C0FA00214520FEF7BCFA40F23F111B
:105330004620FEF7B7FA40F207713020FEF7B2FAC6
:105340004FF401713120FEF7ADFA00E03DE04FF47B
:1053500001713220FEF7A6FA40F202513320FEF727
:10536000A1FA40F207513420FEF79CFA4FF4017184
:105370003520FEF797FA4FF401713620FEF792FAC6
:1053800040F202513720FEF78DFA40F202313A2006
:10539000FEF788FA40F202313B20FEF783FA002143
:1053A0002320FEF77FFA00212420FEF77BFA4FF43A
:1053B00000412520FEF776FA00214F20FEF772FA11
:1053C00000214E20FEF76EFA7AE13148808844F2DF
:1053D000315188427DD101210020FEF763FA0A2075
:1053E000FCF775FB41F228611020FEF75BFA0E21F5
:1053F0001220FEF757FA40F639211320FEF752FA31
:105400000A20FCF764FB40211120FEF74BFA5021E3
:105410001520FEF747FA0A20FCF759FB1E2112203F
:10542000FEF740FA0A20FCF752FB4FF4B15110206E
:10543000FEF738FA42F639211320FEF733FA0A2034
:10544000FCF745FB4FF480710120FEF72BFA4FF477
:1054500040710220FEF726FA41F238010320FEF7E0
:1054600021FA40F202210820FEF71CFA08210A2046
:10547000FEF718FA00213020FEF714FA40F202413C
:105480003120FEF70FFA4FF48371322002E0000062
:105490008C010020FEF706FA40F203513320FEF79C
:1054A00001FA4FF482713420FEF7FCF940F2013129
:1054B0003520FEF7F7F940F207713620FEF7F2F9D2
:1054C00040F205313720FEF7EDF94FF40271382034
:1054D00000E040E0FEF7E6F940F60B713920FEF7F8
:1054E000E1F902214120FEF7DDF94FF41C51602063
:1054F000FEF7D8F901216120FEF7D4F94FF40471C9
:105500009020FEF7CFF94FF485719220FEF7CAF98B
:1055100004219320FEF7C6F94FF48071A020FEF716
:10552000C1F901210720FEF7BDF921210720FEF76F
:10553000B9F923210720FEF7B5F933210720FEF73B
:10554000B1F940F233110720FEF7ACF90021A02099
:10555000FEF7A8F9B4E0FB48808844F23551884250
:10556000F8D130211520FEF79DF910219A20FEF781
:1055700099F920211120FEF795F943F228411020D6
:10558000FEF790F902211220FEF78CF941F2380162
:105590001320FEF787F92820FCF799FA1221084614
:1055A000FEF780F92820FCF792FA43F22041102000
:1055B000FEF778F943F238011320FEF773F946201D
:1055C000FCF785FA00213020FEF76CF940F2024129
:1055D0003120FEF767F940F207313220FEF762F919
:1055E0004FF441713320FEF75DF904213420FEF7BA
:1055F00059F940F201413520FEF754F940F20771A4
:105600003620FEF74FF940F205313720FEF74AF910
:105610004FF4C2613820FEF745F94FF4C2613920DA
:10562000FEF740F94FF480710120FEF73BF94FF48B
:1056300040710220FEF736F941F230010320FEF7F7
:1056400031F940F608010820FEF72CF908210A205C
:10565000FEF728F94FF41C516020FEF723F90121D1
:105660006120FEF71FF94FF49F719020FEF71AF9A1
:105670004FF480719220FEF715F94FF4807193205A
:10568000FEF710F94FF44051A020FEF70BF910215E
:10569000A320FEF707F901210720FEF703F92121D6
:1056A0000720FEF7FFF823210720FEF7FBF8332140
:1056B0000720FEF7F7F840F233110720FEF7F2F863
:1056C00008BD70B5044600269E48058840884543BD
:1056D00000210846FEF711F9FEF7F2F800BF02E0DC
:1056E00099480480761CAE42FAD370BD2DE9F04F84
:1056F00005460E4617469846DDF824A04FF0000BED
:10570000781B401C1FFA80FB344613E021462846D4
:10571000FEF7F3F8FEF7D4F84FF0000906E0504624
:10572000FEF7BAF809F101001FFA80F9D945F6DB56
:10573000601C84B24445E9DDBDE8F08F2DE9F84FE7
:1057400007460D4690469946DDF828B0A8EB0700BD
:10575000401C80B20090A9EB0500401C1FFA80FAA3
:10576000002415E0281981B23846FEF7C6F8FEF786
:10577000A7F8002607E004FB0A603BF81000724916
:105780000880701C86B200988642F4DB601C84B2EC
:105790005445E7DBBDE8F88F2DE9FF4F84B0814623
:1057A0008A460020039002900698A0EB090507980E
:1057B000A0EB0A06CDF80490CDF800A0002D01DD85
:1057C000012705E00DB9002702E04FF0FF376D42D9
:1057D000002E02DD4FF0010806E016B94FF0000878
:1057E00002E04FF0FF387642B54201DD2C4600E082
:1057F00034464FF0000B21E0009A91B2019A90B22A
:10580000FEF74EFA03982844039002983044029021
:105810000398A04205DD0398001B039001983844CB
:1058200001900298A04205DD0298001B02900098AA
:10583000404400900BF101001FFA80FB601C83457F
:10584000DADD08B0BDE8F08FF0B504460D46164627
:105850001F462B46324629462046FFF79DFF3B4612
:10586000224629462046FFF797FF3B4632463946F7
:105870002046FFF791FF3B46324629463046FFF768
:105880008BFFF0BD2DE9F04306460F4690460024FD
:1058900045460320A0EB48093CE07A1B91B232193F
:1058A00090B2FEF7FDF93A1B91B2721990B2FEF771
:1058B000F7F93A1991B2721990B2FEF7F1F97A1923
:1058C00091B2321990B2FEF7EBF97A1991B2321B0C
:1058D00090B2FEF7E5F93A1991B2721B90B2FEF759
:1058E000DFF97A1B91B2321B90B2FEF7D9F93A1B5D
:1058F00091B2721B90B2FEF7D3F9641CB9F1000F9C
:1059000003DAA000801D814404E0601B80000A309F
:1059100081446D1EAC42C0DDBDE8F0832DE9F84F37
:1059200005460F4690461E4600970848B0F800907E
:10593000A8F1200000F0FF080A98002855D10024A3
:1059400050E000008C010020000002606C0000208C
:105950000C2E07D108EB4800FC4901EB800010F841
:1059600004A004E0FA4800EB081010F804A04FF07F
:10597000000B31E00AF0800018B1F648A0F8009062
:1059800003E0F5480088F349088039462846FEF7C9
:1059900087F94FEA4A604FEA106A781C87B2EF48ED
:1059A0000088A84204DCEB48A0F80090BDE8F88F1E
:1059B0000098381AB0420BD1009F681C85B2E748A6
:1059C0000088A84203DCE348A0F80090EEE706E078
:1059D0000BF1010000F0FF0BBBF1080FCADB00BFA9
:1059E000601CC4B2B442B3DB44E0002440E00C2E9F
:1059F00007D108EB4800D54901EB800010F804A05E
:105A000004E0D34800EB081010F804A04FF0000B9E
:105A100028E00AF0800018B139462846FEF740F920
:105A20004FEA4A604FEA106A781C87B2CB48408838
:105A3000A84203DCC748A0F80090B7E70098381ADE
:105A4000B0420BD1009F681C85B2C4480088A842B0
:105A500003DCC048A0F80090A8E706E00BF10100C5
:105A600000F0FF0BBBF1080FD3DB00BF601CC4B21A
:105A7000B442BCDBB748A0F8009000BF96E710B571
:105A80000246012000E050430B00A1F10104E1B205
:105A9000F9D110BD2DE9FF4F81B0074691461E4652
:105AA0000E9D4FF0000A002439E0301B401EC1B2A9
:105AB0000A20FFF7E4FFB9FBF0F00A21B0FBF1F296
:105AC00001FB1208BAF1000F16D1701EA04213DDBF
:105AD000B8F1000F0ED10020AB4605EBDB71491089
